:0801D400900010EEF0A3EFF023
:1001DC00900010E0FEA3E0FFD3EF9400EE940040FB
:1001EC003200009000127416F09000137480F0909E
:1001FC000013E014FFF0EF70F6900012E014FFF023
:10020C00EF70EC900011E024FFF0900010E034FF50
:03021C00F080BDB2
:01021F0022BC
:10026D00759DFF75BD0075BC807F147E001201D495
:01027D00225E
:10024F00900019EFF0900019E0FFEF4488F5BC0023
:0E025F00000000E5BC30E4FB53BCEFAFBD2255
:100118007F007E001201D412026DD2AFD2B47F0AE2
:100128007E001201D4900008E4F0900008E0FF7E01
:1001380000C3EF9408EE648094805021900008E09A
:10014800FF12024F900008E0FE74002EF582E4349E
:1001580000F583EFF0900008E004F080CDC2B47B96
:10016800017A00790090000D7408F07D07120003F1
:0701780050EDD2B480AF226C
:05017F00900017EFF0F5
:100184009000187480F0900018E0FF7E00EF4E603D
:100194002F900017E0FF900018E0FEEE5FFF7E0056
:1001A400EF4E7004C2B78002D2B730B6FD20B6FD60
:1001B400900018E0FFEFC313FF900018EFF080C623
:0F01C400D2B730B6FDA2B7920020B6FDA200B3AD
:0101D3002209
:05009500900014EFF0E3
:10009A00900016E4F09000157480F0900015E0FFCF
:1000AA007E00EF4E604230B6FD20B717900016E092
:1000BA00FF900015E0FEEEF4FEEF5EFF900016EFF3
:1000CA00F08012900016E0FF900015E0FEEF4EFF60
:1000DA00900016EFF020B6FD900015E0FFEFC31375
:1000EA00FF900015EFF080B3900016E0FFEFC31306
:1000FA00FF900014E0FEEFB50604C2B78002D2B743
:0D010A0030B6FD20B6FDD2B7900016E0FF24
:0101170022C5
:10000300900009EBF0A3EAF0A3E9F090000CEDF007
:10001300A2B7E433FF90000EEFF090000EE0FF90E4
:10002300000FEFF0A2B7E433FF90000EEFF0FF7E76
:1000330000EF64014E60E390000FE0FF7E00EF4E9F
:1000430060D830B6D520B6FD90000CE0FF120095C5
:10005300EFC313FF90000CE0FEEFB5063390000DE5
:10006300E0FF7E00D3EF9400EE64809480401F9005
:100073000009E0FBA3E475F001120239A9F0FA12BA
:100083000220FF12017F90000DE014F080CFD322F5
:01009300C3A9
:010094002249
:0300000002027E7B
:0C027E00787FE4F6D8FD7581200201189D
:10022000BB010689828A83E0225002E722BBFE02DC
:09023000E32289828A83E493220F
:10023900A3F8E0C5F025F0F0E58215827002158378
:06024900E0C838F0E822D5
:00000001FF
